{
    "contractName": "TopLightBridge",
    "abi": [
        {
            "constant": false,
            "inputs": [],
            "name": "unpause",
            "outputs": [],
            "payable": false,
            "stateMutability": "nonpayable",
            "type": "function"
        },
        {
            "constant": true,
            "inputs": [],
            "name": "paused",
            "outputs": [
                {
                    "name": "",
                    "type": "bool"
                }
            ],
            "payable": false,
            "stateMutability": "view",
            "type": "function"
        },
        {
            "constant": true,
            "inputs": [],
            "name": "get_block",
            "outputs": [
                {
                    "name": "",
                    "type": "bool"
                }
            ],
            "payable": false,
            "stateMutability": "view",
            "type": "function"
        },
        {
            "constant": false,
            "inputs": [],
            "name": "renounceOwnership",
            "outputs": [],
            "payable": false,
            "stateMutability": "nonpayable",
            "type": "function"
        },
        {
            "constant": false,
            "inputs": [],
            "name": "sync_block",
            "outputs": [
                {
                    "name": "",
                    "type": "bool"
                }
            ],
            "payable": false,
            "stateMutability": "nonpayable",
            "type": "function"
        },
        {
            "constant": false,
            "inputs": [],
            "name": "pause",
            "outputs": [],
            "payable": false,
            "stateMutability": "nonpayable",
            "type": "function"
        },
        {
            "constant": true,
            "inputs": [],
            "name": "owner",
            "outputs": [
                {
                    "name": "",
                    "type": "address"
                }
            ],
            "payable": false,
            "stateMutability": "view",
            "type": "function"
        },
        {
            "constant": false,
            "inputs": [],
            "name": "init_genesis_block",
            "outputs": [
                {
                    "name": "",
                    "type": "bool"
                }
            ],
            "payable": false,
            "stateMutability": "nonpayable",
            "type": "function"
        },
        {
            "constant": false,
            "inputs": [
                {
                    "name": "_newOwner",
                    "type": "address"
                }
            ],
            "name": "transferOwnership",
            "outputs": [],
            "payable": false,
            "stateMutability": "nonpayable",
            "type": "function"
        },
        {
            "anonymous": false,
            "inputs": [],
            "name": "Pause",
            "type": "event"
        },
        {
            "anonymous": false,
            "inputs": [],
            "name": "Unpause",
            "type": "event"
        },
        {
            "anonymous": false,
            "inputs": [
                {
                    "indexed": true,
                    "name": "previousOwner",
                    "type": "address"
                }
            ],
            "name": "OwnershipRenounced",
            "type": "event"
        },
        {
            "anonymous": false,
            "inputs": [
                {
                    "indexed": true,
                    "name": "previousOwner",
                    "type": "address"
                },
                {
                    "indexed": true,
                    "name": "newOwner",
                    "type": "address"
                }
            ],
            "name": "OwnershipTransferred",
            "type": "event"
        }
    ],
    "bytecode": "608060405260008054600160a860020a03191633179055610432806100256000396000f3006080604052600436106100985763ffffffff7c01000000000000000000000000000000000000000000000000000000006000350416633f4ba83a811461009d5780635c975abb146100b457806369a1a596146100dd578063715018a6146100f257806373cc754f146100dd5780638456cb59146101075780638da5cb5b1461011c578063b88b47f81461014d578063f2fde38b14610162575b600080fd5b3480156100a957600080fd5b506100b2610183565b005b3480156100c057600080fd5b506100c961020a565b604080519115158252519081900360200190f35b3480156100e957600080fd5b506100c961022b565b3480156100fe57600080fd5b506100b2610230565b34801561011357600080fd5b506100b261029c565b34801561012857600080fd5b50610131610339565b60408051600160a060020a039092168252519081900360200190f35b34801561015957600080fd5b506100c9610348565b34801561016e57600080fd5b506100b2600160a060020a0360043516610366565b600054600160a060020a0316331461019a57600080fd5b60005474010000000000000000000000000000000000000000900460ff1615156101c357600080fd5b6000805474ff0000000000000000000000000000000000000000191681556040517f7805862f689e2f13df9f062ff482ad3ad112aca9e0847911ed832e158c525b339190a1565b60005474010000000000000000000000000000000000000000900460ff1681565b600190565b600054600160a060020a0316331461024757600080fd5b60008054604051600160a060020a03909116917ff8df31144d9c2f0f6b59d69b8b98abd5459d07f2742c4df920b25aae33c6482091a26000805473ffffffffffffffffffffffffffffffffffffffff19169055565b600054600160a060020a031633146102b357600080fd5b60005474010000000000000000000000000000000000000000900460ff16156102db57600080fd5b6000805474ff00000000000000000000000000000000000000001916740100000000000000000000000000000000000000001781556040517f6985a02210a168e66602d3235cb6db0e70f92b3ba4d376a33c0f3d9434bff6259190a1565b600054600160a060020a031681565b60008054600160a060020a0316331461036057600080fd5b50600190565b600054600160a060020a0316331461037d57600080fd5b61038681610389565b50565b600160a060020a038116151561039e57600080fd5b60008054604051600160a060020a03808516939216917f8be0079c531659141344cd1fd0a4f28419497f9722a3daafe3b4186f6b6457e091a36000805473ffffffffffffffffffffffffffffffffffffffff1916600160a060020a03929092169190911790555600a165627a7a72305820f5dd14995b1835f773497782dacbc632360a0e33bf8d2b142a7a0d3203192d3b0029",
    "sourcePath": "d:/workspace/topnetwork/github/crosschain/contracts/Top/TopLightBridge.sol",
    "compiler": {
        "name": "solc",
        "version": "0.4.24+commit.e67f0147"
    },
    "functionHashes": {
        "get_block()": "69a1a596",
        "init_genesis_block()": "b88b47f8",
        "owner()": "8da5cb5b",
        "pause()": "8456cb59",
        "paused()": "5c975abb",
        "renounceOwnership()": "715018a6",
        "sync_block()": "73cc754f",
        "transferOwnership(address)": "f2fde38b",
        "unpause()": "3f4ba83a"
    },
    "gasEstimates": {
        "creation": {
            "codeDepositCost": "214800",
            "executionCost": "20525",
            "totalCost": "235325"
        },
        "external": {
            "get_block()": "234",
            "init_genesis_block()": "646",
            "owner()": "669",
            "pause()": "21763",
            "paused()": "429",
            "renounceOwnership()": "22138",
            "sync_block()": "278",
            "transferOwnership(address)": "22936",
            "unpause()": "21650"
        }
    }
}